:100000003DEF08F068961200046ED8CF05F0E0CFFF
:1000100006F00001E9CF0CF0EACF07F0E1CF08F0DD
:10002000E2CF09F0D9CF0AF0DACF0BF0F3CF12F01C
:10003000F4CF13F0FACF14F0F5CF15F0F6CF16F099
:10004000F7CF17F000C00EF001C00FF002C010F0A3
:1000500003C011F0A0AA30EF00F0A1BAA5EF07F09D
:100060000EC000F00FC001F010C002F011C003F08C
:100070000CC0E9FF07C0EAFF078E08C0E1FF09C016
:10008000E2FF0AC0D9FF0BC0DAFF12C0F3FF13C0B2
:10009000F4FF14C0FAFF15C0F5FF16C0F6FF17C035
:1000A000F7FF045006C0E0FF05C0D8FF1000F76A54
:1000B000BE0FF66E000EF7220900F5501200040381
:1000C00009041203530065006E0073006F00720094
:1000D000490041001803530065006E0073006F0073
:1000E000720054007200610063006B00F76AFC0F3D
:1000F000F66E000EF7220900F5501200000302FF11
:10010000FFFFFFFFFFFFFFFFFFFFFFFFF76A1C0F6F
:10011000F66E010EF7220900F550120000FF02FFF3
:10012000FFFFFFFFFFFFFFFFFFFFFFFFF76A3C0F2F
:10013000F66E010EF7220900F550120040000B0088
:10014000400000000000000000000000000000006F
:10015000000000000000000000000000F76A6C0FC3
:10016000F66E010EF7220900F55012004000000063
:10017000400000000000000000000000000000003F
:10018000000000000000000000000000F76A9C0F63
:10019000F66E010EF7220900F55012000902430025
:1001A00002010080FA090400000102020100052496
:1001B00000100104240202052406000105240100A8
:1001C00001070581030B00FA09040100020A00007F
:1001D00000070502024000010705820240000100FD
:1001E000F76AF00FF66E010EF7220900F5501200C3
:1001F0000200F76A020FF66E020EF7220900F550B0
:10020000120012171B20FFFFFFFFF76A1A0FF66E8E
:10021000020EF7220900F55012001201100102002F
:10022000004005240B000001010200016D92699459
:1002300068A402D06894FCD76898B1EF07F0400E2C
:100240000401016F040E0001836F180E83C003F4D4
:10025000E8CF02F4880E0401006F046B040E076FF0
:10026000580E066F0001120070A002D0E8DF7090F7
:10027000689AB8EF07F06A6A6892BDEF07F08F914D
:100280008EBF8F818E9F8E51100803E2000E016E8B
:1002900016D08FA10BD0036A8E5128DFFF0802E130
:1002A000000E01D0010E016E0AD009D0036A8E51F2
:1002B0002DDFFF0802E1000E01D0010E016E1200D9
:1002C00093519503F3CF01F0F4CF00F09603F35070
:1002D000002694519503F3500020026E1200036A29
:1002E0008D51700FE96E0F0E0320EA6EEF6A8DC01C
:1002F0008EF0C5DF015222E0946B8DC093F0966BB7
:10030000080E956FDDDF01C0E9FF040E0224EA6EDE
:10031000EF6A946B8DC093F0966B080E956FD0DFEB
:1003200002C08FF001C08EF0040E8E27000E8F23C6
:100330008EC0E9FF040E8F25EA6EEF6A1200010EEF
:100340008C6F8C510F0805E38CC08DF0C8DF8C2BAF
:10035000F8D71200866B856B250E846F800E836F35
:1003600083C02EF084C02FF0306A316A836B83C063
:1003700032F0836B83C033F0080E836F83C034F098
:10038000786B7791366A356A766B2190796B1200BB
:100390002B6A2A6A826B825101080AE3036A82513E
:1003A0002C0FE96E000E0320EA6EEF6A822BF3D762
:1003B000D1DF1E6A010E1F6E1D6A12006B6A696A28
:1003C0006A6A686A6E6A706ABADFE2DF160E706E79
:1003D00068A602D017DEFCD79F0E6B6E3D0E696ECD
:1003E0006D982DDF030E256EC2EF07F069846998C2
:1003F0006D82C7EF07F0689CCCEF07F087C026F04E
:10040000120026681200856B2A502B102DE08551B2
:100410003F082AE3205005E0020A09E0010A0DE046
:1004200011D029C003F02850B1DE866F0BD029C04F
:1004300003F028503CDE866F05D029C003F0285019
:10044000E4DE866F282AD8B4292A2A50D8B42B068D
:100450002A068551852B580FE96E040EEA6ED8B036
:10046000EA2A86C0EFFFD0D72A502B1004E185512D
:10047000400801E01D6A85C087F0C0DF1200846B70
:10048000296A286A206A04011B51010A000107E059
:10049000030A0BE0010A0DE0220A23E037D02B6AA1
:1004A000120E2A6E030E206E33D02B6A430E2A6E74
:1004B0002FD0020E206E846B04011A510001845D5E
:1004C00009E229C003F02850F2DD2826000E292277
:1004D000842BF2D729C003F02850E9DD2A6E2B6A5D
:1004E00017D0036A04011A51000183DE286E296ABD
:1004F000283C02D0295208E029C003F0285046DEEB
:100500002A6E2B6A05D002D07CDF11D07ADF0FD0A3
:1005100004011F5308E12B5203E12A501E5D03E240
:100520002B6A1EC42AF0010E1D6E00016CDFBFEFA6
:1005300003F0845304E1040E256E01DFCBD0050ED9
:10054000256E040E876F980E866F010E856F85519C
:100550000F08D8A0BFD085C08DF0C1DE886B036ABC
:100560008551D4DDFF085BE0040E886FD890853597
:10057000036AF4DD0900F5CF03F0896F03C08AF048
:10058000946B85C093F0966B080E956F99DE01C051
:100590008CF0010E0124016E000E0220036E01C0DA
:1005A000E9FF040E0324EA6E89C0EFFF946B85C057
:1005B00093F0966B080E956F83DE01C08CF0020EEF
:1005C0000124016E000E0220036E01C0E9FF040E3B
:1005D0000324EA6E87C0ECFFED5286C0EFFFD8908F
:1005E0008535036ABBDD0900F5CF03F0862703508C
:1005F0008723880E8B6F8AA101D08B818AA301D0BB
:100600008B83946B85C093F0966B080E956F58DEC4
:1006100001C0E9FF040E0224EA6E8BC0EFFF036AFB
:10062000855164DDFF0840E08883946B85C093F0BA
:10063000966B080E956F44DE02C08DF001C08CF001
:10064000040E8C27000E8D23020E8C25016E000EE9
:100650008D21036E01C0E9FF040E0324EA6E87C0FA
:10066000ECFFED5286C0EFFFD8908535036A5EDD62
:100670000900F5CF03F0862703508723946B85C0CC
:1006800093F0966B080E956F1BDE02C08DF001C0D3
:100690008CF0040E8C27000E8D238CC0E9FF040E15
:1006A0008D25EA6E400EEF6E8851060802E10E0EAF
:1006B000886F036A85511ADD010801E08889036AA1
:1006C0008551700FE96E0F0E0320EA6E88C0EFFFB0
:1006D000852B3DD7B9EF03F004011951000A000141
:1006E0000DE0010A14E0020A1FE0060A29E0030AED
:1006F0002EE00E0A2EE0010A32E040D01FC058F46E
:100700000401596B020E0001876F78DE38D00401B6
:100710001A2D07D0010E1F160001876B6FDE03D064
:10072000040100016EDE2BD004011A2D06D01F82B9
:100730000001876B63DE03D00401000162DE1FD07D
:10074000020E1D6E1AC427F0876B58DE18D097D69C
:1007500016D01EC058F4010E876F50DE10D0040171
:100760001A51010809E31AC41EF01AC484F00001EA
:10077000E0D6876B43DE0401000101D042DE31EF99
:1007800005F01EC084F004011951000A000105E0C3
:100790000A0A0BE0010A26E037D00401586B596BB6
:1007A000020E0001876F2ADE30D0845319E0010E5B
:1007B000845D036A15DD016E04011C5DD8A002D0C2
:1007C00000010ED0036A1C512C0FE96E000E0320AD
:1007D000EA6EEFCF58F4010E0001876F0FDE01D0F3
:1007E00010DE13D084530EE0036A04011C512C0F59
:1007F000E96E000E0320EA6E1AC4EFFF0001876B5A
:10080000FDDD01D0FEDD01D0FCDD31EF05F085918D
:1008100084BF8581849F85A117D0946B84C093F099
:10082000966B080E956F4CDD02C087F001C086F014
:10083000040E8627000E872386C0E9FF040E872555
:10084000EA6E880EEF6E0DD0946B84C093F0966BB9
:10085000080E956F35DD01C0E9FF040E0224EA6E33
:10086000EF6A036A8451700F016E0F0E032201C0FC
:10087000E9FF03C0EAFFEF90B2EF04F0859184BF77
:100880008581849F85A117D0946B84C093F0966B6B
:10089000080E956F15DD02C087F001C086F0040ECA
:1008A0008627000E872386C0E9FF040E8725EA6E9F
:1008B000840EEF6E0ED0946B84C093F0966B080E8E
:1008C000956FFEDC01C0E9FF040E0224EA6E840E7F
:1008D000EF6EB8EF04F0859184BF8581849F85A178
:1008E00017D0946B84C093F0966B080E956FE8DC7C
:1008F00002C088F001C087F0040E8727000E88230D
:1009000087C0E9FF040E8825EA6EEFCF86F00ED08F
:10091000946B84C093F0966B080E956FD1DC01C088
:10092000E9FF040E0224EA6EEFCF86F086AF02D014
:1009300086B502D0000E01D0010E016EC2EF04F0A8
:100940001CC48EF09CDC015228E004011951010AFC
:10095000000105E0020A09E0030A0DE01DD01CC4F5
:1009600084F055D7876B4ADD18D01CC484F086D735
:10097000876B44DD12D00401586B596B1CC484F0A2
:100980000001A9D7015204E0010E0401586F0001D3
:10099000020E876F33DD01D034DD31EF05F0FE0E3E
:1009A000266E120004011C2D01D002D01C533FE121
:1009B0001FC485F01EC484F01951000A00010BE029
:1009C000010A0DE0210A0FE0010A12E0030A21E00A
:1009D000010A24E02AD0010E796FE1DF27D084C01C
:1009E00087F00CDD23D0020E796F7781D8DF1ED01F
:1009F000040EEA6E580EE96EE26A2E0EE16E070EE4
:100A0000016EE6CFEEFF012EFCD7070E876FF6DCF6
:100A10000DD01AC478F0876BF1DC08D01AC436F018
:100A20001BC435F0876BEADC01D0EBDC040100016C
:100A300031EF05F01D6A040118517F0B000A000117
:100A400007E0010A07E0030A07E0230A07E008D0ED
:100A500043D607D096D605D073D703D0A3D701D0FD
:100A6000D0DC5BEF07F0946B85C093F0966B080EBB
:100A7000956F26DC01C0E9FF040E0224EA6EEFCF79
:100A800087F08651020806E187AD02D0866B02D05E
:100A9000010E866F8651030819E1840E876F946BEF
:100AA00085C093F0966B080E956F0ADC02C08BF040
:100AB00001C08AF0040E8A27000E8B238AC0E9FF4A
:100AC000040E8B25EA6E840EEF6E07D0862D03D0C0
:100AD000C80E876F02D0880E876FD8908535036A5D
:100AE000AEEC00F00900F5CF03F0886F03C089F089
:100AF000946B85C093F0966B080E956F60EC01F0D7
:100B000001C08AF0010E0124016E000E0220036E66
:100B100001C0E9FF040E0324EA6E88C0EFFF89A13B
:100B200001D0878189A301D08783946B85C093F01E
:100B3000966B080E956F60EC01F001C0E9FF040EA2
:100B40000224EA6E87C0EFFF1200036A9251700F11
:100B5000E96E0F0E0320EA6EEF5219E0946B92C01B
:100B600093F0966B080E956F60EC01F002C094F064
:100B700001C093F0040E9327000E942393C0E9FF65
:100B8000040E9425EA6EEFCF95F095AF02D0000EDB
:100B900001D0010E016E12008DC092F0D6DF01521D
:100BA000D8B48FD0946B8DC093F0966B080E956F70
:100BB00060EC01F002C093F001C092F0040E9227A5
:100BC000000E9323010E9225016E000E9321036EF9
:100BD00001C0E9FF040E0324EA6E8EC0EFFF9051BE
:100BE00002081EE1946B8DC093F0966B080E956F12
:100BF00060EC01F002C093F001C092F0040E922765
:100C0000000E932392C0E9FF040E9325EA6EEFCF06
:100C100091F091AD02D0906B02D0010E906F18D080
:100C20009051040815E1946B8DC093F0966B080EFB
:100C3000956F60EC01F001C0E9FF040E0224EA6E3A
:100C4000EFCF91F091AD03D0010E906F01D0906B7A
:100C5000902D03D0480E916F02D0080E916F946BC7
:100C60008DC093F0966B080E956F60EC01F002C09A
:100C700093F001C092F0040E9227000E932392C0CD
:100C8000E9FF040E9325EA6E91C0EFFF946B8DC0CF
:100C900093F0966B080E956F60EC01F002C093F034
:100CA00001C092F0040E9227000E932392C0E9FF38
:100CB000040E9325EA6EEF508009EF6E010E016E6F
:100CC00002D0000E016E12007951010A03E0030AFE
:100CD00006E017D0876BFEEC01F0796B13D0EA6A5F
:100CE0002E0EE96E040EE26E180EE16E070E016E16
:100CF000E6CFEEFF012EFCD7796B876BFEEC01F09F
:100D000001D0796BB6EF06F0946B85C093F0966BCB
:100D1000080E956F60EC01F002C087F001C086F00C
:100D2000010E0124016E000E0220036E01C0E9FFD6
:100D3000040E0324EA6EEFCF01F0026AACEF06F076
:100D40002190020E856F866F8EDEB1EF06F0218056
:100D5000236A020E856FD8D701C022F0225201E12A
:100D6000EFD7BBEF06F0845302E1AED704D0845135
:100D7000020801E1ECD7120085C06EFF855303E045
:100D8000040E256E02D0020E256ECCEF06F01E6A10
:100D90001D6A27C085F0F0D73AEF07F085C092F0C2
:100DA000D4DE015243E0946B85C093F0966B080E3D
:100DB000956F60EC01F002C08EF001C08DF0040E62
:100DC0008D27000E8E23020E8D25016E000E8E21C2
:100DD000036E01C0E9FF040E0324EA6EECCF8CF031
:100DE000ED52EFCF8BF08CC0EAFF8BC0E9FF87C0DC
:100DF000E2FF86C0E1FF89C002F088C001F0015225
:100E000002E0022A02D0025206E0E6CFEEFF012EF7
:100E1000FCD7022EFAD785C08DF089C08FF088C02C
:100E20008EF08AC090F0B8DE015002D0000E016E44
:100E300027EF07F076530EE0020E856F876B370EB3
:100E4000866F896B76C088F0020E8A6FA7D7015231
:100E500001E0766B2DEF07F0EDD73FEF07F08453FD
:100E60000AE11D2C03D003EC02F004D01D5002084F
:100E7000D8B48DD704D08451020801E1EDD7120017
:100E80002430826F823382331F0E8217245241E155
:100E9000040100513C0B0001836F430E0401001755
:100EA0000001835134081EE104010451800B01E06C
:100EB000046B0001BFD56D98263C05D0856B030EF1
:100EC000866FD1DD0ED0856B020E866FCCDD26508D
:100ED000FE0807E08D6B8F6B26C08EF0040E906FBE
:100EE0005BDE16D08351040813E1846B3CDF856B15
:100EF000020E866FB8DD2650FE080AE0263C01D0BF
:100F000007D08D6B8F6B26C08EF0010E906F44DE84
:100F10001AD0245004080EE12668846BA0DF263C1A
:100F200001D007D08D6B8F6B26C08EF0020E906FB4
:100F300033DE09D024B404D082C084F014DF03D09F
:100F400082C084F08CDFD6EF07F0A19A2552D8B486
:100F500033D06852D8B430D068A403D069B416EF47
:100F600001F06DB229D068AA03D069BA34EF01F05C
:100F700068A203D069B23BEF01F068A003D069B06A
:100F8000DEEF01F068A803D069B8F6EF01F068ACB5
:100F900003D069BCFBEF01F0816B68A608D069A69D
:100FA00006D06CCF24F002EC00F06AD701D004D058
:100FB0008151812B0308F1E230EF00F06D926D6AF0
:100FC000696A080E6F6E94503009946E256A196A2A
:100FD000F2BE198EF29EC8EC01F019BEF28E12001C
:100FE000EDDF24EF08F0196AF2BE198EF29EC8EC0C
:100FF00001F019BEF28E6D926D6A6D8C00D000D03A
:1010000000006D9C140E6F6E696A6D86010E256E70
:1010100010EF08F0928280A204D06DB601D0E3D721
:1010200003D06DA601D0CADF252C0BD06DBA09D034
:10103000686A696AA08AC00EF212110E696E020E09
:10104000256E25EF08F0CCD7E5D725500208FCE146
:1010500052EF08F0EA6A7D0EE96EEF500DE0060EE1
:10106000016E006A002EFED7012EFBD77B0E006EAC
:10107000002EFED7EF2EF3D71200F86AD09E078E0F
:10108000C150C00B0F09C16E070EB46E1A6A040E70
:101090001B6E160E1C6E7A6B7B6BC150C00B0F095A
:1010A000C16ED1D792908990020E7C6FFA0E7D6F3F
:1010B000D1DF7C2FFBD792908980020E7C6FFA0ED5
:0C10C0007D6FC8DF7C2FFBD7EDD703004D
:020000040030CA
:0E00000004CC3E1E0087A1000FC00FE00F4091
:00000001FF
;PIC18F4550
;CRC=C93F  CREATED="25-ene.-24 18:35"
